{
  "_format": "hh-sol-artifact-1",
  "contractName": "Create",
  "sourceName": "contracts/VotingContract.sol",
  "abi": [
    {
      "inputs": [],
      "stateMutability": "nonpayable",
      "type": "constructor"
    },
    {
      "anonymous": false,
      "inputs": [
        {
          "indexed": true,
          "internalType": "uint256",
          "name": "_candidateId",
          "type": "uint256"
        },
        {
          "indexed": false,
          "internalType": "string",
          "name": "age",
          "type": "string"
        },
        {
          "indexed": false,
          "internalType": "string",
          "name": "name",
          "type": "string"
        },
        {
          "indexed": false,
          "internalType": "string",
          "name": "image",
          "type": "string"
        },
        {
          "indexed": false,
          "internalType": "uint256",
          "name": "voteCount",
          "type": "uint256"
        },
        {
          "indexed": false,
          "internalType": "address",
          "name": "_address",
          "type": "address"
        },
        {
          "indexed": false,
          "internalType": "string",
          "name": "ipfs",
          "type": "string"
        }
      ],
      "name": "CandidateCreate",
      "type": "event"
    },
    {
      "anonymous": false,
      "inputs": [
        {
          "indexed": true,
          "internalType": "uint256",
          "name": "voter_voterId",
          "type": "uint256"
        },
        {
          "indexed": false,
          "internalType": "string",
          "name": "voter_name",
          "type": "string"
        },
        {
          "indexed": false,
          "internalType": "string",
          "name": "voter_image",
          "type": "string"
        },
        {
          "indexed": false,
          "internalType": "address",
          "name": "voter_address",
          "type": "address"
        },
        {
          "indexed": false,
          "internalType": "uint256",
          "name": "voter_allowed",
          "type": "uint256"
        },
        {
          "indexed": false,
          "internalType": "bool",
          "name": "voter_voted",
          "type": "bool"
        },
        {
          "indexed": false,
          "internalType": "uint256",
          "name": "voter_vot",
          "type": "uint256"
        },
        {
          "indexed": false,
          "internalType": "string",
          "name": "voter_ipfs",
          "type": "string"
        }
      ],
      "name": "VoterCreated",
      "type": "event"
    },
    {
      "inputs": [],
      "name": "_candidateId",
      "outputs": [
        {
          "internalType": "uint256",
          "name": "_value",
          "type": "uint256"
        }
      ],
      "stateMutability": "view",
      "type": "function"
    },
    {
      "inputs": [],
      "name": "_voterId",
      "outputs": [
        {
          "internalType": "uint256",
          "name": "_value",
          "type": "uint256"
        }
      ],
      "stateMutability": "view",
      "type": "function"
    },
    {
      "inputs": [
        {
          "internalType": "uint256",
          "name": "",
          "type": "uint256"
        }
      ],
      "name": "candidateAddress",
      "outputs": [
        {
          "internalType": "address",
          "name": "",
          "type": "address"
        }
      ],
      "stateMutability": "view",
      "type": "function"
    },
    {
      "inputs": [
        {
          "internalType": "address",
          "name": "",
          "type": "address"
        }
      ],
      "name": "candidates",
      "outputs": [
        {
          "internalType": "uint256",
          "name": "candidateId",
          "type": "uint256"
        },
        {
          "internalType": "string",
          "name": "age",
          "type": "string"
        },
        {
          "internalType": "string",
          "name": "name",
          "type": "string"
        },
        {
          "internalType": "string",
          "name": "image",
          "type": "string"
        },
        {
          "internalType": "uint256",
          "name": "voteCount",
          "type": "uint256"
        },
        {
          "internalType": "address",
          "name": "_address",
          "type": "address"
        },
        {
          "internalType": "string",
          "name": "ipfs",
          "type": "string"
        }
      ],
      "stateMutability": "view",
      "type": "function"
    },
    {
      "inputs": [],
      "name": "getCandidate",
      "outputs": [
        {
          "internalType": "address[]",
          "name": "",
          "type": "address[]"
        }
      ],
      "stateMutability": "view",
      "type": "function"
    },
    {
      "inputs": [],
      "name": "getCandidateLength",
      "outputs": [
        {
          "internalType": "uint256",
          "name": "",
          "type": "uint256"
        }
      ],
      "stateMutability": "view",
      "type": "function"
    },
    {
      "inputs": [
        {
          "internalType": "address",
          "name": "_address",
          "type": "address"
        }
      ],
      "name": "getCandidatedata",
      "outputs": [
        {
          "internalType": "string",
          "name": "",
          "type": "string"
        },
        {
          "internalType": "string",
          "name": "",
          "type": "string"
        },
        {
          "internalType": "uint256",
          "name": "",
          "type": "uint256"
        },
        {
          "internalType": "string",
          "name": "",
          "type": "string"
        },
        {
          "internalType": "uint256",
          "name": "",
          "type": "uint256"
        },
        {
          "internalType": "string",
          "name": "",
          "type": "string"
        },
        {
          "internalType": "address",
          "name": "",
          "type": "address"
        }
      ],
      "stateMutability": "view",
      "type": "function"
    },
    {
      "inputs": [],
      "name": "getVotedVoterList",
      "outputs": [
        {
          "internalType": "address[]",
          "name": "",
          "type": "address[]"
        }
      ],
      "stateMutability": "view",
      "type": "function"
    },
    {
      "inputs": [],
      "name": "getVoterLength",
      "outputs": [
        {
          "internalType": "uint256",
          "name": "",
          "type": "uint256"
        }
      ],
      "stateMutability": "view",
      "type": "function"
    },
    {
      "inputs": [],
      "name": "getVoterList",
      "outputs": [
        {
          "internalType": "address[]",
          "name": "",
          "type": "address[]"
        }
      ],
      "stateMutability": "view",
      "type": "function"
    },
    {
      "inputs": [
        {
          "internalType": "address",
          "name": "_address",
          "type": "address"
        }
      ],
      "name": "getVoterdata",
      "outputs": [
        {
          "internalType": "uint256",
          "name": "",
          "type": "uint256"
        },
        {
          "internalType": "string",
          "name": "",
          "type": "string"
        },
        {
          "internalType": "string",
          "name": "",
          "type": "string"
        },
        {
          "internalType": "address",
          "name": "",
          "type": "address"
        },
        {
          "internalType": "string",
          "name": "",
          "type": "string"
        },
        {
          "internalType": "uint256",
          "name": "",
          "type": "uint256"
        },
        {
          "internalType": "bool",
          "name": "",
          "type": "bool"
        }
      ],
      "stateMutability": "view",
      "type": "function"
    },
    {
      "inputs": [
        {
          "internalType": "address",
          "name": "_address",
          "type": "address"
        },
        {
          "internalType": "string",
          "name": "_age",
          "type": "string"
        },
        {
          "internalType": "string",
          "name": "_name",
          "type": "string"
        },
        {
          "internalType": "string",
          "name": "_image",
          "type": "string"
        },
        {
          "internalType": "string",
          "name": "_ipfs",
          "type": "string"
        }
      ],
      "name": "setCandidate",
      "outputs": [],
      "stateMutability": "nonpayable",
      "type": "function"
    },
    {
      "inputs": [
        {
          "internalType": "address",
          "name": "_candidateAddress",
          "type": "address"
        },
        {
          "internalType": "uint256",
          "name": "_candidateVoteId",
          "type": "uint256"
        }
      ],
      "name": "vote",
      "outputs": [],
      "stateMutability": "nonpayable",
      "type": "function"
    },
    {
      "inputs": [
        {
          "internalType": "uint256",
          "name": "",
          "type": "uint256"
        }
      ],
      "name": "votedVoters",
      "outputs": [
        {
          "internalType": "address",
          "name": "",
          "type": "address"
        }
      ],
      "stateMutability": "view",
      "type": "function"
    },
    {
      "inputs": [
        {
          "internalType": "address",
          "name": "_address",
          "type": "address"
        },
        {
          "internalType": "string",
          "name": "_name",
          "type": "string"
        },
        {
          "internalType": "string",
          "name": "_image",
          "type": "string"
        },
        {
          "internalType": "string",
          "name": "_ipfs",
          "type": "string"
        }
      ],
      "name": "voterRight",
      "outputs": [],
      "stateMutability": "nonpayable",
      "type": "function"
    },
    {
      "inputs": [
        {
          "internalType": "address",
          "name": "",
          "type": "address"
        }
      ],
      "name": "voters",
      "outputs": [
        {
          "internalType": "uint256",
          "name": "voter_voterId",
          "type": "uint256"
        },
        {
          "internalType": "string",
          "name": "voter_name",
          "type": "string"
        },
        {
          "internalType": "string",
          "name": "voter_image",
          "type": "string"
        },
        {
          "internalType": "address",
          "name": "voter_address",
          "type": "address"
        },
        {
          "internalType": "uint256",
          "name": "voter_allowed",
          "type": "uint256"
        },
        {
          "internalType": "bool",
          "name": "voter_voted",
          "type": "bool"
        },
        {
          "internalType": "uint256",
          "name": "voter_vote",
          "type": "uint256"
        },
        {
          "internalType": "string",
          "name": "voter_ipfs",
          "type": "string"
        }
      ],
      "stateMutability": "view",
      "type": "function"
    },
    {
      "inputs": [
        {
          "internalType": "uint256",
          "name": "",
          "type": "uint256"
        }
      ],
      "name": "votersAddress",
      "outputs": [
        {
          "internalType": "address",
          "name": "",
          "type": "address"
        }
      ],
      "stateMutability": "view",
      "type": "function"
    },
    {
      "inputs": [],
      "name": "votingOrganizer",
      "outputs": [
        {
          "internalType": "address",
          "name": "",
          "type": "address"
        }
      ],
      "stateMutability": "view",
      "type": "function"
    }
  ],
  "bytecode": "0x608060405234801561001057600080fd5b50600280546001600160a01b0319163317905561190c806100326000396000f3fe608060405234801561001057600080fd5b50600436106101165760003560e01c80638e945685116100a2578063b63c82ca11610071578063b63c82ca1461023a578063b9be315214610260578063c5036fd41461026a578063c91ec71214610290578063f7522a83146102a357600080fd5b80638e945685146101f9578063a3ec138d14610201578063a738896714610228578063b28d92ae1461023257600080fd5b80635cc48aa7116100e95780635cc48aa7146101855780635f74bbde1461019857806370218b85146101ab5780637831ffb3146101c05780638ab66a90146101d357600080fd5b80630361419e1461011b57806305ad45a4146101305780633a88251a1461014757806343242daa14610172575b600080fd5b61012e61012936600461127c565b6102ab565b005b6006545b6040519081526020015b60405180910390f35b61015a610155366004611315565b610493565b6040516001600160a01b03909116815260200161013e565b61015a610180366004611315565b6104bd565b60025461015a906001600160a01b031681565b61012e6101a636600461132e565b6104cd565b6101b361060e565b60405161013e9190611358565b61015a6101ce366004611315565b610670565b6101e66101e13660046113a5565b610680565b60405161013e979695949392919061140d565b6101b36108e9565b61021461020f3660046113a5565b610949565b60405161013e989796959493929190611484565b6001546101349081565b6101b3610b35565b61024d6102483660046113a5565b610b95565b60405161013e97969594939291906114fa565b6000546101349081565b61027d6102783660046113a5565b610e28565b60405161013e9796959493929190611570565b61012e61029e3660046115da565b61103e565b600354610134565b6002546001600160a01b0316331461030a5760405162461bcd60e51b815260206004820152601d60248201527f63686920636f2063687520736f20687575206d6f6920646320676f692000000060448201526064015b60405180910390fd5b610318600080546001019055565b600080546001600160a01b0386168252600760205260409091206004810154156103845760405162461bcd60e51b815260206004820152601860248201527f766f7465722e766f7465725f616c6c6f776564203d3d203000000000000000006044820152606401610301565b60016004820181905581016103998682611721565b50600281016103a88582611721565b506003810180546001600160a01b0319166001600160a01b0388161790558181556103e8600682015560058101805460ff19169055600781016103eb8482611721565b506006805460018101825560008290527ff652222313e28459528d920b65115c16c04f3efc82aaedc97be59f3f377c0d3f0180546001600160a01b0319166001600160a01b038916179055600482015460058301549183015460405185937ff5f39971dd62d9929e3a9feaa6bb77fe7c7da0001babff8a65a7e51ad0201c1993610483938b938b938e939260ff909116918c906117e1565b60405180910390a2505050505050565b600381815481106104a357600080fd5b6000918252602090912001546001600160a01b0316905081565b600681815481106104a357600080fd5b336000908152600760205260409020600581015460ff161561052a5760405162461bcd60e51b81526020600482015260166024820152751e5bdd481a185d9948185b1c9958591e481d9bdd195960521b6044820152606401610301565b806004015460000361057e5760405162461bcd60e51b815260206004820152601960248201527f796f752068617665206e6f20726967687420746f20766f7465000000000000006044820152606401610301565b6005808201805460ff191660019081179091556006830184905581549081019091557f036b6384b5eca791c62761152d0c79bb0604c104a5fb6f4eb0703f3154bb3db00180546001600160a01b031916331790556004808201546001600160a01b038516600090815260208390526040812090920180549192909161060490849061183f565b9091555050505050565b6060600380548060200260200160405190810160405280929190818152602001828054801561066657602002820191906000526020600020905b81546001600160a01b03168152600190910190602001808311610648575b5050505050905090565b600581815481106104a357600080fd5b600460205260009081526040902080546001820180549192916106a290611698565b80601f01602080910402602001604051908101604052809291908181526020018280546106ce90611698565b801561071b5780601f106106f05761010080835404028352916020019161071b565b820191906000526020600020905b8154815290600101906020018083116106fe57829003601f168201915b50505050509080600201805461073090611698565b80601f016020809104026020016040519081016040528092919081815260200182805461075c90611698565b80156107a95780601f1061077e576101008083540402835291602001916107a9565b820191906000526020600020905b81548152906001019060200180831161078c57829003601f168201915b5050505050908060030180546107be90611698565b80601f01602080910402602001604051908101604052809291908181526020018280546107ea90611698565b80156108375780601f1061080c57610100808354040283529160200191610837565b820191906000526020600020905b81548152906001019060200180831161081a57829003601f168201915b5050505060048301546005840154600685018054949592946001600160a01b0390921693509061086690611698565b80601f016020809104026020016040519081016040528092919081815260200182805461089290611698565b80156108df5780601f106108b4576101008083540402835291602001916108df565b820191906000526020600020905b8154815290600101906020018083116108c257829003601f168201915b5050505050905087565b60606005805480602002602001604051908101604052809291908181526020018280548015610666576020028201919060005260206000209081546001600160a01b03168152600190910190602001808311610648575050505050905090565b6007602052600090815260409020805460018201805491929161096b90611698565b80601f016020809104026020016040519081016040528092919081815260200182805461099790611698565b80156109e45780601f106109b9576101008083540402835291602001916109e4565b820191906000526020600020905b8154815290600101906020018083116109c757829003601f168201915b5050505050908060020180546109f990611698565b80601f0160208091040260200160405190810160405280929190818152602001828054610a2590611698565b8015610a725780601f10610a4757610100808354040283529160200191610a72565b820191906000526020600020905b815481529060010190602001808311610a5557829003601f168201915b505050600384015460048501546005860154600687015460078801805497986001600160a01b039095169793965060ff90921694509291610ab290611698565b80601f0160208091040260200160405190810160405280929190818152602001828054610ade90611698565b8015610b2b5780601f10610b0057610100808354040283529160200191610b2b565b820191906000526020600020905b815481529060010190602001808311610b0e57829003601f168201915b5050505050905088565b60606006805480602002602001604051908101604052809291908181526020018280548015610666576020028201919060005260206000209081546001600160a01b03168152600190910190602001808311610648575050505050905090565b6001600160a01b03808216600090815260046020819052604082208054918101546005820154600183018054606097889796889688968896889695600284019560038501946006019216908790610beb90611698565b80601f0160208091040260200160405190810160405280929190818152602001828054610c1790611698565b8015610c645780601f10610c3957610100808354040283529160200191610c64565b820191906000526020600020905b815481529060010190602001808311610c4757829003601f168201915b50505050509650858054610c7790611698565b80601f0160208091040260200160405190810160405280929190818152602001828054610ca390611698565b8015610cf05780601f10610cc557610100808354040283529160200191610cf0565b820191906000526020600020905b815481529060010190602001808311610cd357829003601f168201915b50505050509550838054610d0390611698565b80601f0160208091040260200160405190810160405280929190818152602001828054610d2f90611698565b8015610d7c5780601f10610d5157610100808354040283529160200191610d7c565b820191906000526020600020905b815481529060010190602001808311610d5f57829003601f168201915b50505050509350818054610d8f90611698565b80601f0160208091040260200160405190810160405280929190818152602001828054610dbb90611698565b8015610e085780601f10610ddd57610100808354040283529160200191610e08565b820191906000526020600020905b815481529060010190602001808311610deb57829003601f168201915b505050505091509650965096509650965096509650919395979092949650565b6001600160a01b03808216600090815260076020819052604082208054600382015460048301546005840154600185018054979860609889988b988a988a9889989197600284019691909116949290930192909160ff909116908690610e8d90611698565b80601f0160208091040260200160405190810160405280929190818152602001828054610eb990611698565b8015610f065780601f10610edb57610100808354040283529160200191610f06565b820191906000526020600020905b815481529060010190602001808311610ee957829003601f168201915b50505050509550848054610f1990611698565b80601f0160208091040260200160405190810160405280929190818152602001828054610f4590611698565b8015610f925780601f10610f6757610100808354040283529160200191610f92565b820191906000526020600020905b815481529060010190602001808311610f7557829003601f168201915b50505050509450828054610fa590611698565b80601f0160208091040260200160405190810160405280929190818152602001828054610fd190611698565b801561101e5780601f10610ff35761010080835404028352916020019161101e565b820191906000526020600020905b81548152906001019060200180831161100157829003601f168201915b505050505092509650965096509650965096509650919395979092949650565b6002546001600160a01b0316331461108b5760405162461bcd60e51b815260206004820152601060248201526f31b4349031b79037b933b0b734bd32b960811b6044820152606401610301565b611099600180546001019055565b60006110a460015490565b6001600160a01b0387166000908152600460205260409020909150600181016110cd8782611721565b50600281016110dc8682611721565b50818155600381016110ee8582611721565b50600060048201556005810180546001600160a01b0319166001600160a01b038916179055600681016111218482611721565b50600380546001810182556000919091527fc2575a0e9e593c00f959f8c92f12db2869c3395a3b0502d05e2516446f71f85b0180546001600160a01b0319166001600160a01b038916179055600481015460405183917fd297f12b256bb8485a6013fb5e302017018123e99a0ebb20756c09e1707b4b90916111ac918a918a918a918e908b90611866565b60405180910390a250505050505050565b80356001600160a01b03811681146111d457600080fd5b919050565b634e487b7160e01b600052604160045260246000fd5b600082601f83011261120057600080fd5b813567ffffffffffffffff8082111561121b5761121b6111d9565b604051601f8301601f19908116603f01168101908282118183101715611243576112436111d9565b8160405283815286602085880101111561125c57600080fd5b836020870160208301376000602085830101528094505050505092915050565b6000806000806080858703121561129257600080fd5b61129b856111bd565b9350602085013567ffffffffffffffff808211156112b857600080fd5b6112c4888389016111ef565b945060408701359150808211156112da57600080fd5b6112e6888389016111ef565b935060608701359150808211156112fc57600080fd5b50611309878288016111ef565b91505092959194509250565b60006020828403121561132757600080fd5b5035919050565b6000806040838503121561134157600080fd5b61134a836111bd565b946020939093013593505050565b6020808252825182820181905260009190848201906040850190845b818110156113995783516001600160a01b031683529284019291840191600101611374565b50909695505050505050565b6000602082840312156113b757600080fd5b6113c0826111bd565b9392505050565b6000815180845260005b818110156113ed576020818501810151868301820152016113d1565b506000602082860101526020601f19601f83011685010191505092915050565b87815260e06020820152600061142660e08301896113c7565b828103604084015261143881896113c7565b9050828103606084015261144c81886113c7565b608084018790526001600160a01b03861660a085015283810360c0850152905061147681856113c7565b9a9950505050505050505050565b60006101008a835280602084015261149e8184018b6113c7565b905082810360408401526114b2818a6113c7565b6001600160a01b03891660608501526080840188905286151560a085015260c0840186905283810360e085015290506114eb81856113c7565b9b9a5050505050505050505050565b60e08152600061150d60e083018a6113c7565b828103602084015261151f818a6113c7565b9050876040840152828103606084015261153981886113c7565b905085608084015282810360a084015261155381866113c7565b91505060018060a01b03831660c083015298975050505050505050565b87815260e06020820152600061158960e08301896113c7565b828103604084015261159b81896113c7565b6001600160a01b0388166060850152838103608085015290506115be81876113c7565b60a0840195909552505090151560c09091015295945050505050565b600080600080600060a086880312156115f257600080fd5b6115fb866111bd565b9450602086013567ffffffffffffffff8082111561161857600080fd5b61162489838a016111ef565b9550604088013591508082111561163a57600080fd5b61164689838a016111ef565b9450606088013591508082111561165c57600080fd5b61166889838a016111ef565b9350608088013591508082111561167e57600080fd5b5061168b888289016111ef565b9150509295509295909350565b600181811c908216806116ac57607f821691505b6020821081036116cc57634e487b7160e01b600052602260045260246000fd5b50919050565b601f82111561171c57600081815260208120601f850160051c810160208610156116f95750805b601f850160051c820191505b8181101561171857828155600101611705565b5050505b505050565b815167ffffffffffffffff81111561173b5761173b6111d9565b61174f816117498454611698565b846116d2565b602080601f831160018114611784576000841561176c5750858301515b600019600386901b1c1916600185901b178555611718565b600085815260208120601f198616915b828110156117b357888601518255948401946001909101908401611794565b50858210156117d15787850151600019600388901b60f8161c191681555b5050505050600190811b01905550565b60e0815260006117f460e083018a6113c7565b8281036020840152611806818a6113c7565b6001600160a01b038916604085015260608401889052861515608085015260a0840186905283810360c0850152905061147681856113c7565b8082018082111561186057634e487b7160e01b600052601160045260246000fd5b92915050565b60c08152600061187960c08301896113c7565b828103602084015261188b81896113c7565b9050828103604084015261189f81886113c7565b606084018790526001600160a01b038616608085015283810360a085015290506118c981856113c7565b999850505050505050505056fea2646970667358221220111d481fe94a40c4f0f4bada6bc798abd3d1e70854fee7a0dd7c5ba47d98358264736f6c63430008130033",
  "linkReferences": {},
  "deployedLinkReferences": {}
}